{
  "_format": "hh-sol-artifact-1",
  "contractName": "Exchange",
  "sourceName": "contracts/Exchange.sol",
  "abi": [
    {
      "inputs": [
        {
          "internalType": "address",
          "name": "_LionTokenAddress",
          "type": "address"
        }
      ],
      "stateMutability": "nonpayable",
      "type": "constructor"
    },
    {
      "anonymous": false,
      "inputs": [
        {
          "indexed": true,
          "internalType": "address",
          "name": "owner",
          "type": "address"
        },
        {
          "indexed": true,
          "internalType": "address",
          "name": "spender",
          "type": "address"
        },
        {
          "indexed": false,
          "internalType": "uint256",
          "name": "value",
          "type": "uint256"
        }
      ],
      "name": "Approval",
      "type": "event"
    },
    {
      "anonymous": false,
      "inputs": [
        {
          "indexed": true,
          "internalType": "address",
          "name": "from",
          "type": "address"
        },
        {
          "indexed": true,
          "internalType": "address",
          "name": "to",
          "type": "address"
        },
        {
          "indexed": false,
          "internalType": "uint256",
          "name": "value",
          "type": "uint256"
        }
      ],
      "name": "Transfer",
      "type": "event"
    },
    {
      "inputs": [
        {
          "internalType": "uint256",
          "name": "_amount",
          "type": "uint256"
        }
      ],
      "name": "addLiquidity",
      "outputs": [
        {
          "internalType": "uint256",
          "name": "",
          "type": "uint256"
        }
      ],
      "stateMutability": "payable",
      "type": "function"
    },
    {
      "inputs": [
        {
          "internalType": "address",
          "name": "owner",
          "type": "address"
        },
        {
          "internalType": "address",
          "name": "spender",
          "type": "address"
        }
      ],
      "name": "allowance",
      "outputs": [
        {
          "internalType": "uint256",
          "name": "",
          "type": "uint256"
        }
      ],
      "stateMutability": "view",
      "type": "function"
    },
    {
      "inputs": [
        {
          "internalType": "address",
          "name": "spender",
          "type": "address"
        },
        {
          "internalType": "uint256",
          "name": "amount",
          "type": "uint256"
        }
      ],
      "name": "approve",
      "outputs": [
        {
          "internalType": "bool",
          "name": "",
          "type": "bool"
        }
      ],
      "stateMutability": "nonpayable",
      "type": "function"
    },
    {
      "inputs": [
        {
          "internalType": "address",
          "name": "account",
          "type": "address"
        }
      ],
      "name": "balanceOf",
      "outputs": [
        {
          "internalType": "uint256",
          "name": "",
          "type": "uint256"
        }
      ],
      "stateMutability": "view",
      "type": "function"
    },
    {
      "inputs": [],
      "name": "decimals",
      "outputs": [
        {
          "internalType": "uint8",
          "name": "",
          "type": "uint8"
        }
      ],
      "stateMutability": "view",
      "type": "function"
    },
    {
      "inputs": [
        {
          "internalType": "address",
          "name": "spender",
          "type": "address"
        },
        {
          "internalType": "uint256",
          "name": "subtractedValue",
          "type": "uint256"
        }
      ],
      "name": "decreaseAllowance",
      "outputs": [
        {
          "internalType": "bool",
          "name": "",
          "type": "bool"
        }
      ],
      "stateMutability": "nonpayable",
      "type": "function"
    },
    {
      "inputs": [
        {
          "internalType": "uint256",
          "name": "_minTokens",
          "type": "uint256"
        }
      ],
      "name": "ethToLionToken",
      "outputs": [],
      "stateMutability": "payable",
      "type": "function"
    },
    {
      "inputs": [
        {
          "internalType": "uint256",
          "name": "inputAmount",
          "type": "uint256"
        },
        {
          "internalType": "uint256",
          "name": "inputReserve",
          "type": "uint256"
        },
        {
          "internalType": "uint256",
          "name": "outputReserve",
          "type": "uint256"
        }
      ],
      "name": "getAmountOfTokens",
      "outputs": [
        {
          "internalType": "uint256",
          "name": "",
          "type": "uint256"
        }
      ],
      "stateMutability": "pure",
      "type": "function"
    },
    {
      "inputs": [],
      "name": "getReserve",
      "outputs": [
        {
          "internalType": "uint256",
          "name": "",
          "type": "uint256"
        }
      ],
      "stateMutability": "view",
      "type": "function"
    },
    {
      "inputs": [
        {
          "internalType": "address",
          "name": "spender",
          "type": "address"
        },
        {
          "internalType": "uint256",
          "name": "addedValue",
          "type": "uint256"
        }
      ],
      "name": "increaseAllowance",
      "outputs": [
        {
          "internalType": "bool",
          "name": "",
          "type": "bool"
        }
      ],
      "stateMutability": "nonpayable",
      "type": "function"
    },
    {
      "inputs": [],
      "name": "lionTokenAddress",
      "outputs": [
        {
          "internalType": "address",
          "name": "",
          "type": "address"
        }
      ],
      "stateMutability": "view",
      "type": "function"
    },
    {
      "inputs": [
        {
          "internalType": "uint256",
          "name": "_tokensSold",
          "type": "uint256"
        },
        {
          "internalType": "uint256",
          "name": "_minEth",
          "type": "uint256"
        }
      ],
      "name": "lionTokenToEth",
      "outputs": [],
      "stateMutability": "nonpayable",
      "type": "function"
    },
    {
      "inputs": [],
      "name": "name",
      "outputs": [
        {
          "internalType": "string",
          "name": "",
          "type": "string"
        }
      ],
      "stateMutability": "view",
      "type": "function"
    },
    {
      "inputs": [
        {
          "internalType": "uint256",
          "name": "_amount",
          "type": "uint256"
        }
      ],
      "name": "removeLiquidity",
      "outputs": [
        {
          "internalType": "uint256",
          "name": "",
          "type": "uint256"
        },
        {
          "internalType": "uint256",
          "name": "",
          "type": "uint256"
        }
      ],
      "stateMutability": "nonpayable",
      "type": "function"
    },
    {
      "inputs": [],
      "name": "symbol",
      "outputs": [
        {
          "internalType": "string",
          "name": "",
          "type": "string"
        }
      ],
      "stateMutability": "view",
      "type": "function"
    },
    {
      "inputs": [],
      "name": "totalSupply",
      "outputs": [
        {
          "internalType": "uint256",
          "name": "",
          "type": "uint256"
        }
      ],
      "stateMutability": "view",
      "type": "function"
    },
    {
      "inputs": [
        {
          "internalType": "address",
          "name": "to",
          "type": "address"
        },
        {
          "internalType": "uint256",
          "name": "amount",
          "type": "uint256"
        }
      ],
      "name": "transfer",
      "outputs": [
        {
          "internalType": "bool",
          "name": "",
          "type": "bool"
        }
      ],
      "stateMutability": "nonpayable",
      "type": "function"
    },
    {
      "inputs": [
        {
          "internalType": "address",
          "name": "from",
          "type": "address"
        },
        {
          "internalType": "address",
          "name": "to",
          "type": "address"
        },
        {
          "internalType": "uint256",
          "name": "amount",
          "type": "uint256"
        }
      ],
      "name": "transferFrom",
      "outputs": [
        {
          "internalType": "bool",
          "name": "",
          "type": "bool"
        }
      ],
      "stateMutability": "nonpayable",
      "type": "function"
    }
  ],
  "bytecode": "0x60806040523480156200001157600080fd5b5060405162002b8d38038062002b8d8339818101604052810190620000379190620001ed565b6040518060400160405280600d81526020017f4c696f6e204c5020546f6b656e000000000000000000000000000000000000008152506040518060400160405280600381526020017f4c4c5000000000000000000000000000000000000000000000000000000000008152508160039081620000b4919062000499565b508060049081620000c6919062000499565b505050600073ffffffffffffffffffffffffffffffffffffffff168173ffffffffffffffffffffffffffffffffffffffff16036200013b576040517f08c379a0000000000000000000000000000000000000000000000000000000008152600401620001329062000607565b60405180910390fd5b80600560006101000a81548173ffffffffffffffffffffffffffffffffffffffff021916908373ffffffffffffffffffffffffffffffffffffffff1602179055505062000629565b600080fd5b600073ffffffffffffffffffffffffffffffffffffffff82169050919050565b6000620001b58262000188565b9050919050565b620001c781620001a8565b8114620001d357600080fd5b50565b600081519050620001e781620001bc565b92915050565b60006020828403121562000206576200020562000183565b5b60006200021684828501620001d6565b91505092915050565b600081519050919050565b7f4e487b7100000000000000000000000000000000000000000000000000000000600052604160045260246000fd5b7f4e487b7100000000000000000000000000000000000000000000000000000000600052602260045260246000fd5b60006002820490506001821680620002a157607f821691505b602082108103620002b757620002b662000259565b5b50919050565b60008190508160005260206000209050919050565b60006020601f8301049050919050565b600082821b905092915050565b600060088302620003217fffffffffffffffffffffffffffffffffffffffffffffffffffffffffffffffff82620002e2565b6200032d8683620002e2565b95508019841693508086168417925050509392505050565b6000819050919050565b6000819050919050565b60006200037a620003746200036e8462000345565b6200034f565b62000345565b9050919050565b6000819050919050565b620003968362000359565b620003ae620003a58262000381565b848454620002ef565b825550505050565b600090565b620003c5620003b6565b620003d28184846200038b565b505050565b5b81811015620003fa57620003ee600082620003bb565b600181019050620003d8565b5050565b601f82111562000449576200041381620002bd565b6200041e84620002d2565b810160208510156200042e578190505b620004466200043d85620002d2565b830182620003d7565b50505b505050565b600082821c905092915050565b60006200046e600019846008026200044e565b1980831691505092915050565b60006200048983836200045b565b9150826002028217905092915050565b620004a4826200021f565b67ffffffffffffffff811115620004c057620004bf6200022a565b5b620004cc825462000288565b620004d9828285620003fe565b600060209050601f831160018114620005115760008415620004fc578287015190505b6200050885826200047b565b86555062000578565b601f1984166200052186620002bd565b60005b828110156200054b5784890151825560018201915060208501945060208101905062000524565b868310156200056b578489015162000567601f8916826200045b565b8355505b6001600288020188555050505b505050505050565b600082825260208201905092915050565b7f546f6b656e2041646472657373207061737365642069732061206e756c6c206160008201527f6464726573730000000000000000000000000000000000000000000000000000602082015250565b6000620005ef60268362000580565b9150620005fc8262000591565b604082019050919050565b600060208201905081810360008301526200062281620005e0565b9050919050565b61255480620006396000396000f3fe6080604052600436106101085760003560e01c806370a08231116100955780639c8f9f23116100645780639c8f9f2314610399578063a457c2d7146103d7578063a9059cbb14610414578063b80c172714610451578063dd62ed3e1461046d57610108565b806370a08231146102cb5780637386479e1461030857806384c921c71461034557806395d89b411461036e57610108565b806323b872dd116100dc57806323b872dd146101cb578063313ce56714610208578063395093511461023357806351c6590a1461027057806359bf5d39146102a057610108565b80623304291461010d57806306fdde0314610138578063095ea7b31461016357806318160ddd146101a0575b600080fd5b34801561011957600080fd5b506101226104aa565b60405161012f9190611772565b60405180910390f35b34801561014457600080fd5b5061014d6104d0565b60405161015a919061181d565b60405180910390f35b34801561016f57600080fd5b5061018a600480360381019061018591906118a6565b610562565b6040516101979190611901565b60405180910390f35b3480156101ac57600080fd5b506101b5610585565b6040516101c2919061192b565b60405180910390f35b3480156101d757600080fd5b506101f260048036038101906101ed9190611946565b61058f565b6040516101ff9190611901565b60405180910390f35b34801561021457600080fd5b5061021d6105be565b60405161022a91906119b5565b60405180910390f35b34801561023f57600080fd5b5061025a600480360381019061025591906118a6565b6105c7565b6040516102679190611901565b60405180910390f35b61028a600480360381019061028591906119d0565b6105fe565b604051610297919061192b565b60405180910390f35b3480156102ac57600080fd5b506102b56107fc565b6040516102c2919061192b565b60405180910390f35b3480156102d757600080fd5b506102f260048036038101906102ed91906119fd565b61089f565b6040516102ff919061192b565b60405180910390f35b34801561031457600080fd5b5061032f600480360381019061032a9190611a2a565b6108e7565b60405161033c919061192b565b60405180910390f35b34801561035157600080fd5b5061036c60048036038101906103679190611a7d565b61098c565b005b34801561037a57600080fd5b50610383610ada565b604051610390919061181d565b60405180910390f35b3480156103a557600080fd5b506103c060048036038101906103bb91906119d0565b610b6c565b6040516103ce929190611abd565b60405180910390f35b3480156103e357600080fd5b506103fe60048036038101906103f991906118a6565b610d01565b60405161040b9190611901565b60405180910390f35b34801561042057600080fd5b5061043b600480360381019061043691906118a6565b610d78565b6040516104489190611901565b60405180910390f35b61046b600480360381019061046691906119d0565b610d9b565b005b34801561047957600080fd5b50610494600480360381019061048f9190611ae6565b610eaa565b6040516104a1919061192b565b60405180910390f35b600560009054906101000a900473ffffffffffffffffffffffffffffffffffffffff1681565b6060600380546104df90611b55565b80601f016020809104026020016040519081016040528092919081815260200182805461050b90611b55565b80156105585780601f1061052d57610100808354040283529160200191610558565b820191906000526020600020905b81548152906001019060200180831161053b57829003601f168201915b5050505050905090565b60008061056d610f31565b905061057a818585610f39565b600191505092915050565b6000600254905090565b60008061059a610f31565b90506105a7858285611102565b6105b285858561118e565b60019150509392505050565b60006012905090565b6000806105d2610f31565b90506105f38185856105e48589610eaa565b6105ee9190611bb5565b610f39565b600191505092915050565b600080600047905060006106106107fc565b90506000600560009054906101000a900473ffffffffffffffffffffffffffffffffffffffff169050600082036106d4578073ffffffffffffffffffffffffffffffffffffffff166323b872dd3330896040518463ffffffff1660e01b815260040161067e93929190611be9565b6020604051808303816000875af115801561069d573d6000803e3d6000fd5b505050506040513d601f19601f820116820180604052508101906106c19190611c4c565b508293506106cf3385611404565b6107f0565b600034846106e29190611c79565b905060008184346106f39190611cad565b6106fd9190611d1e565b905080881015610742576040517f08c379a000000000000000000000000000000000000000000000000000000000815260040161073990611dc1565b60405180910390fd5b8273ffffffffffffffffffffffffffffffffffffffff166323b872dd3330846040518463ffffffff1660e01b815260040161077f93929190611be9565b6020604051808303816000875af115801561079e573d6000803e3d6000fd5b505050506040513d601f19601f820116820180604052508101906107c29190611c4c565b5081346107cd610585565b6107d79190611cad565b6107e19190611d1e565b95506107ed3387611404565b50505b83945050505050919050565b6000600560009054906101000a900473ffffffffffffffffffffffffffffffffffffffff1673ffffffffffffffffffffffffffffffffffffffff166370a08231306040518263ffffffff1660e01b81526004016108599190611772565b602060405180830381865afa158015610876573d6000803e3d6000fd5b505050506040513d601f19601f8201168201806040525081019061089a9190611df6565b905090565b60008060008373ffffffffffffffffffffffffffffffffffffffff1673ffffffffffffffffffffffffffffffffffffffff168152602001908152602001600020549050919050565b600080831180156108f85750600082115b610937576040517f08c379a000000000000000000000000000000000000000000000000000000000815260040161092e90611e6f565b60405180910390fd5b60006063856109469190611cad565b9050600083826109569190611cad565b90506000826064876109689190611cad565b6109729190611bb5565b905080826109809190611d1e565b93505050509392505050565b60006109966107fc565b905060006109a58483476108e7565b9050828110156109ea576040517f08c379a00000000000000000000000000000000000000000000000000000000081526004016109e190611edb565b60405180910390fd5b600560009054906101000a900473ffffffffffffffffffffffffffffffffffffffff1673ffffffffffffffffffffffffffffffffffffffff166323b872dd3330876040518463ffffffff1660e01b8152600401610a4993929190611be9565b6020604051808303816000875af1158015610a68573d6000803e3d6000fd5b505050506040513d601f19601f82011682018060405250810190610a8c9190611c4c565b503373ffffffffffffffffffffffffffffffffffffffff166108fc829081150290604051600060405180830381858888f19350505050158015610ad3573d6000803e3d6000fd5b5050505050565b606060048054610ae990611b55565b80601f0160208091040260200160405190810160405280929190818152602001828054610b1590611b55565b8015610b625780601f10610b3757610100808354040283529160200191610b62565b820191906000526020600020905b815481529060010190602001808311610b4557829003601f168201915b5050505050905090565b60008060008311610bb2576040517f08c379a0000000000000000000000000000000000000000000000000000000008152600401610ba990611f6d565b60405180910390fd5b60004790506000610bc1610585565b90506000818684610bd29190611cad565b610bdc9190611d1e565b905060008287610bea6107fc565b610bf49190611cad565b610bfe9190611d1e565b9050610c0a338861155a565b3373ffffffffffffffffffffffffffffffffffffffff166108fc839081150290604051600060405180830381858888f19350505050158015610c50573d6000803e3d6000fd5b50600560009054906101000a900473ffffffffffffffffffffffffffffffffffffffff1673ffffffffffffffffffffffffffffffffffffffff1663a9059cbb33836040518363ffffffff1660e01b8152600401610cae929190611f8d565b6020604051808303816000875af1158015610ccd573d6000803e3d6000fd5b505050506040513d601f19601f82011682018060405250810190610cf19190611c4c565b5081819550955050505050915091565b600080610d0c610f31565b90506000610d1a8286610eaa565b905083811015610d5f576040517f08c379a0000000000000000000000000000000000000000000000000000000008152600401610d5690612028565b60405180910390fd5b610d6c8286868403610f39565b60019250505092915050565b600080610d83610f31565b9050610d9081858561118e565b600191505092915050565b6000610da56107fc565b90506000610dbf343447610db99190611c79565b846108e7565b905082811015610e04576040517f08c379a0000000000000000000000000000000000000000000000000000000008152600401610dfb90611edb565b60405180910390fd5b600560009054906101000a900473ffffffffffffffffffffffffffffffffffffffff1673ffffffffffffffffffffffffffffffffffffffff1663a9059cbb33836040518363ffffffff1660e01b8152600401610e61929190611f8d565b6020604051808303816000875af1158015610e80573d6000803e3d6000fd5b505050506040513d601f19601f82011682018060405250810190610ea49190611c4c565b50505050565b6000600160008473ffffffffffffffffffffffffffffffffffffffff1673ffffffffffffffffffffffffffffffffffffffff16815260200190815260200160002060008373ffffffffffffffffffffffffffffffffffffffff1673ffffffffffffffffffffffffffffffffffffffff16815260200190815260200160002054905092915050565b600033905090565b600073ffffffffffffffffffffffffffffffffffffffff168373ffffffffffffffffffffffffffffffffffffffff1603610fa8576040517f08c379a0000000000000000000000000000000000000000000000000000000008152600401610f9f906120ba565b60405180910390fd5b600073ffffffffffffffffffffffffffffffffffffffff168273ffffffffffffffffffffffffffffffffffffffff1603611017576040517f08c379a000000000000000000000000000000000000000000000000000000000815260040161100e9061214c565b60405180910390fd5b80600160008573ffffffffffffffffffffffffffffffffffffffff1673ffffffffffffffffffffffffffffffffffffffff16815260200190815260200160002060008473ffffffffffffffffffffffffffffffffffffffff1673ffffffffffffffffffffffffffffffffffffffff168152602001908152602001600020819055508173ffffffffffffffffffffffffffffffffffffffff168373ffffffffffffffffffffffffffffffffffffffff167f8c5be1e5ebec7d5bd14f71427d1e84f3dd0314c0f7b2291e5b200ac8c7c3b925836040516110f5919061192b565b60405180910390a3505050565b600061110e8484610eaa565b90507fffffffffffffffffffffffffffffffffffffffffffffffffffffffffffffffff8114611188578181101561117a576040517f08c379a0000000000000000000000000000000000000000000000000000000008152600401611171906121b8565b60405180910390fd5b6111878484848403610f39565b5b50505050565b600073ffffffffffffffffffffffffffffffffffffffff168373ffffffffffffffffffffffffffffffffffffffff16036111fd576040517f08c379a00000000000000000000000000000000000000000000000000000000081526004016111f49061224a565b60405180910390fd5b600073ffffffffffffffffffffffffffffffffffffffff168273ffffffffffffffffffffffffffffffffffffffff160361126c576040517f08c379a0000000000000000000000000000000000000000000000000000000008152600401611263906122dc565b60405180910390fd5b611277838383611727565b60008060008573ffffffffffffffffffffffffffffffffffffffff1673ffffffffffffffffffffffffffffffffffffffff168152602001908152602001600020549050818110156112fd576040517f08c379a00000000000000000000000000000000000000000000000000000000081526004016112f49061236e565b60405180910390fd5b8181036000808673ffffffffffffffffffffffffffffffffffffffff1673ffffffffffffffffffffffffffffffffffffffff16815260200190815260200160002081905550816000808573ffffffffffffffffffffffffffffffffffffffff1673ffffffffffffffffffffffffffffffffffffffff168152602001908152602001600020600082825401925050819055508273ffffffffffffffffffffffffffffffffffffffff168473ffffffffffffffffffffffffffffffffffffffff167fddf252ad1be2c89b69c2b068fc378daa952ba7f163c4a11628f55a4df523b3ef846040516113eb919061192b565b60405180910390a36113fe84848461172c565b50505050565b600073ffffffffffffffffffffffffffffffffffffffff168273ffffffffffffffffffffffffffffffffffffffff1603611473576040517f08c379a000000000000000000000000000000000000000000000000000000000815260040161146a906123da565b60405180910390fd5b61147f60008383611727565b80600260008282546114919190611bb5565b92505081905550806000808473ffffffffffffffffffffffffffffffffffffffff1673ffffffffffffffffffffffffffffffffffffffff168152602001908152602001600020600082825401925050819055508173ffffffffffffffffffffffffffffffffffffffff16600073ffffffffffffffffffffffffffffffffffffffff167fddf252ad1be2c89b69c2b068fc378daa952ba7f163c4a11628f55a4df523b3ef83604051611542919061192b565b60405180910390a36115566000838361172c565b5050565b600073ffffffffffffffffffffffffffffffffffffffff168273ffffffffffffffffffffffffffffffffffffffff16036115c9576040517f08c379a00000000000000000000000000000000000000000000000000000000081526004016115c09061246c565b60405180910390fd5b6115d582600083611727565b60008060008473ffffffffffffffffffffffffffffffffffffffff1673ffffffffffffffffffffffffffffffffffffffff1681526020019081526020016000205490508181101561165b576040517f08c379a0000000000000000000000000000000000000000000000000000000008152600401611652906124fe565b60405180910390fd5b8181036000808573ffffffffffffffffffffffffffffffffffffffff1673ffffffffffffffffffffffffffffffffffffffff1681526020019081526020016000208190555081600260008282540392505081905550600073ffffffffffffffffffffffffffffffffffffffff168373ffffffffffffffffffffffffffffffffffffffff167fddf252ad1be2c89b69c2b068fc378daa952ba7f163c4a11628f55a4df523b3ef8460405161170e919061192b565b60405180910390a36117228360008461172c565b505050565b505050565b505050565b600073ffffffffffffffffffffffffffffffffffffffff82169050919050565b600061175c82611731565b9050919050565b61176c81611751565b82525050565b60006020820190506117876000830184611763565b92915050565b600081519050919050565b600082825260208201905092915050565b60005b838110156117c75780820151818401526020810190506117ac565b60008484015250505050565b6000601f19601f8301169050919050565b60006117ef8261178d565b6117f98185611798565b93506118098185602086016117a9565b611812816117d3565b840191505092915050565b6000602082019050818103600083015261183781846117e4565b905092915050565b600080fd5b61184d81611751565b811461185857600080fd5b50565b60008135905061186a81611844565b92915050565b6000819050919050565b61188381611870565b811461188e57600080fd5b50565b6000813590506118a08161187a565b92915050565b600080604083850312156118bd576118bc61183f565b5b60006118cb8582860161185b565b92505060206118dc85828601611891565b9150509250929050565b60008115159050919050565b6118fb816118e6565b82525050565b600060208201905061191660008301846118f2565b92915050565b61192581611870565b82525050565b6000602082019050611940600083018461191c565b92915050565b60008060006060848603121561195f5761195e61183f565b5b600061196d8682870161185b565b935050602061197e8682870161185b565b925050604061198f86828701611891565b9150509250925092565b600060ff82169050919050565b6119af81611999565b82525050565b60006020820190506119ca60008301846119a6565b92915050565b6000602082840312156119e6576119e561183f565b5b60006119f484828501611891565b91505092915050565b600060208284031215611a1357611a1261183f565b5b6000611a218482850161185b565b91505092915050565b600080600060608486031215611a4357611a4261183f565b5b6000611a5186828701611891565b9350506020611a6286828701611891565b9250506040611a7386828701611891565b9150509250925092565b60008060408385031215611a9457611a9361183f565b5b6000611aa285828601611891565b9250506020611ab385828601611891565b9150509250929050565b6000604082019050611ad2600083018561191c565b611adf602083018461191c565b9392505050565b60008060408385031215611afd57611afc61183f565b5b6000611b0b8582860161185b565b9250506020611b1c8582860161185b565b9150509250929050565b7f4e487b7100000000000000000000000000000000000000000000000000000000600052602260045260246000fd5b60006002820490506001821680611b6d57607f821691505b602082108103611b8057611b7f611b26565b5b50919050565b7f4e487b7100000000000000000000000000000000000000000000000000000000600052601160045260246000fd5b6000611bc082611870565b9150611bcb83611870565b9250828201905080821115611be357611be2611b86565b5b92915050565b6000606082019050611bfe6000830186611763565b611c0b6020830185611763565b611c18604083018461191c565b949350505050565b611c29816118e6565b8114611c3457600080fd5b50565b600081519050611c4681611c20565b92915050565b600060208284031215611c6257611c6161183f565b5b6000611c7084828501611c37565b91505092915050565b6000611c8482611870565b9150611c8f83611870565b9250828203905081811115611ca757611ca6611b86565b5b92915050565b6000611cb882611870565b9150611cc383611870565b9250828202611cd181611870565b91508282048414831517611ce857611ce7611b86565b5b5092915050565b7f4e487b7100000000000000000000000000000000000000000000000000000000600052601260045260246000fd5b6000611d2982611870565b9150611d3483611870565b925082611d4457611d43611cef565b5b828204905092915050565b7f416d6f756e74206f6620746f6b656e732073656e74206973206c65737320746860008201527f616e20746865206d696e696d756d20746f6b656e732072657175697265640000602082015250565b6000611dab603e83611798565b9150611db682611d4f565b604082019050919050565b60006020820190508181036000830152611dda81611d9e565b9050919050565b600081519050611df08161187a565b92915050565b600060208284031215611e0c57611e0b61183f565b5b6000611e1a84828501611de1565b91505092915050565b7f496e76616c696420726573657276657300000000000000000000000000000000600082015250565b6000611e59601083611798565b9150611e6482611e23565b602082019050919050565b60006020820190508181036000830152611e8881611e4c565b9050919050565b7f496e73756666696369656e74206f757470757420616d6f756e74000000000000600082015250565b6000611ec5601a83611798565b9150611ed082611e8f565b602082019050919050565b60006020820190508181036000830152611ef481611eb8565b9050919050565b7f416d6f756e742073686f756c642062652067726561746572207468616e207a6560008201527f726f000000000000000000000000000000000000000000000000000000000000602082015250565b6000611f57602283611798565b9150611f6282611efb565b604082019050919050565b60006020820190508181036000830152611f8681611f4a565b9050919050565b6000604082019050611fa26000830185611763565b611faf602083018461191c565b9392505050565b7f45524332303a2064656372656173656420616c6c6f77616e63652062656c6f7760008201527f207a65726f000000000000000000000000000000000000000000000000000000602082015250565b6000612012602583611798565b915061201d82611fb6565b604082019050919050565b6000602082019050818103600083015261204181612005565b9050919050565b7f45524332303a20617070726f76652066726f6d20746865207a65726f2061646460008201527f7265737300000000000000000000000000000000000000000000000000000000602082015250565b60006120a4602483611798565b91506120af82612048565b604082019050919050565b600060208201905081810360008301526120d381612097565b9050919050565b7f45524332303a20617070726f766520746f20746865207a65726f20616464726560008201527f7373000000000000000000000000000000000000000000000000000000000000602082015250565b6000612136602283611798565b9150612141826120da565b604082019050919050565b6000602082019050818103600083015261216581612129565b9050919050565b7f45524332303a20696e73756666696369656e7420616c6c6f77616e6365000000600082015250565b60006121a2601d83611798565b91506121ad8261216c565b602082019050919050565b600060208201905081810360008301526121d181612195565b9050919050565b7f45524332303a207472616e736665722066726f6d20746865207a65726f20616460008201527f6472657373000000000000000000000000000000000000000000000000000000602082015250565b6000612234602583611798565b915061223f826121d8565b604082019050919050565b6000602082019050818103600083015261226381612227565b9050919050565b7f45524332303a207472616e7366657220746f20746865207a65726f206164647260008201527f6573730000000000000000000000000000000000000000000000000000000000602082015250565b60006122c6602383611798565b91506122d18261226a565b604082019050919050565b600060208201905081810360008301526122f5816122b9565b9050919050565b7f45524332303a207472616e7366657220616d6f756e742065786365656473206260008201527f616c616e63650000000000000000000000000000000000000000000000000000602082015250565b6000612358602683611798565b9150612363826122fc565b604082019050919050565b600060208201905081810360008301526123878161234b565b9050919050565b7f45524332303a206d696e7420746f20746865207a65726f206164647265737300600082015250565b60006123c4601f83611798565b91506123cf8261238e565b602082019050919050565b600060208201905081810360008301526123f3816123b7565b9050919050565b7f45524332303a206275726e2066726f6d20746865207a65726f2061646472657360008201527f7300000000000000000000000000000000000000000000000000000000000000602082015250565b6000612456602183611798565b9150612461826123fa565b604082019050919050565b6000602082019050818103600083015261248581612449565b9050919050565b7f45524332303a206275726e20616d6f756e7420657863656564732062616c616e60008201527f6365000000000000000000000000000000000000000000000000000000000000602082015250565b60006124e8602283611798565b91506124f38261248c565b604082019050919050565b60006020820190508181036000830152612517816124db565b905091905056fea26469706673582212201af9e6b27fa9b98307c3d979aba3e1c9feaed3efa1d957451b2ea9ef853e308164736f6c63430008110033",
  "linkReferences": {},
  "deployedLinkReferences": {}
}